:100000000C9435000C945D000C945D000C945D0024
:100010000C945D000C945D000C945D000C945D00EC
:100020000C945D000C945D000C945D000C945D00DC
:100030000C945D000C945D000C945D000C945D00CC
:100040000C947D010C945D000C94ED010C94C7019F
:100050000C945D000C945D000C945D000C945D00AC
:100060000C945D000C945D00090311241FBECFEFBA
:10007000D8E0DEBFCDBF11E0A0E0B1E0EAECF6E0F1
:1000800002C005900D92A232B107D9F721E0A2E299
:10009000B1E001C01D92AA3CB207E1F710E0C5E350
:1000A000D0E004C02197FE010E945803C433D10759
:1000B000C9F70E941F020C9463030C940000FC011A
:1000C000538D448D252F30E0842F90E0821B930BBD
:1000D000541710F0CF96089501970895FC01918D63
:1000E000828D981761F0828DDF01A80FB11D5D969A
:1000F0008C91928D9F5F9F73928F90E008958FEF08
:100100009FEF0895FC01918D828D981731F0828DBB
:10011000E80FF11D858D90E008958FEF9FEF089512
:10012000FC01918D228D892F90E0805C9F4F821B76
:1001300091098F7399270895FC01848DDF01A80F21
:10014000B11DA35ABF4F2C91848D90E001968F73FF
:100150009927848FA689B7892C93A089B1898C911E
:1001600080648C93938D848D981306C00288F389E4
:10017000E02D80818F7D80830895EF92FF920F9311
:100180001F93CF93DF93EC0181E0888F9B8D8C8D43
:10019000981305C0E889F989808185FD24C0F62E71
:1001A0000B8D10E00F5F1F4F0F731127E02E8C8D0A
:1001B000E8120CC00FB607FCFACFE889F9898081F4
:1001C00085FFF5CFCE010E949C00F1CF8B8DFE0103
:1001D000E80FF11DE35AFF4FF0820B8FEA89FB898C
:1001E0008081806207C0EE89FF896083E889F98990
:1001F00080818064808381E090E0DF91CF911F91C6
:100200000F91FF90EF900895CF93DF93EC01888DCD
:100210008823C9F0EA89FB89808185FD05C0A8890A
:10022000B9898C9186FD0FC00FB607FCF5CF808190
:1002300085FFF2CFA889B9898C9185FFEDCFCE01DA
:100240000E949C00E7CFDF91CF9108958DE291E06D
:100250000E94900021E0892B09F420E0822F08956C
:1002600080E090E0892B29F00E94260181110C94F6
:1002700000000895CF92DF92EF92FF920F931F93A9
:10028000CF93DF936C017A018B01C0E0D0E0CE15F3
:10029000DF0589F0D8016D918D01D601ED91FC91BA
:1002A0000190F081E02DC6010995892B11F47E01A2
:1002B00002C02196ECCFC701DF91CF911F910F9122
:1002C000FF90EF90DF90CF900895089580E090E048
:1002D0000895009769F0FC0101900020E9F731973B
:1002E000AF01481B590BBC018DE291E00C943A011F
:1002F00080E090E008950E945E031F920F920FB677
:100300000F9211242F933F938F939F93AF93BF939B
:100310008091290190912A01A0912B01B0912C018B
:100320003091280123E0230F2D3720F40196A11DE1
:10033000B11D05C026E8230F0296A11DB11D209313
:1003400028018093290190932A01A0932B01B09357
:100350002C018091240190912501A0912601B0915A
:1003600027010196A11DB11D8093240190932501C1
:10037000A0932601B0932701BF91AF919F918F91D8
:100380003F912F910F900FBE0F901F9018951F92C5
:100390000F920FB60F9211242F933F934F935F93B9
:1003A0006F937F938F939F93AF93BF93EF93FF933D
:1003B0008DE291E00E949C00FF91EF91BF91AF917F
:1003C0009F918F917F916F915F914F913F912F916D
:1003D0000F900FBE0F901F9018951F920F920FB69F
:1003E0000F9211242F938F939F93EF93FF93E0919C
:1003F0003D01F0913E018081E0914301F091440183
:1004000082FD12C09081809146018F5F8F73209191
:100410004701821751F0E0914601F0E0E35DFE4FA5
:10042000958F8093460101C08081FF91EF919F914C
:100430008F912F910F900FBE0F901F901895CF9313
:10044000DF93CDB7DEB7A1970FB6F894DEBF0FBE2E
:10045000CDBF789484B5826084BD84B5816084BD4D
:1004600085B5826085BD85B5816085BD80916E0052
:10047000816080936E001092810080918100826083
:1004800080938100809181008160809381008091C0
:1004900080008160809380008091B10084608093AF
:1004A000B1008091B00081608093B00080917A00AB
:1004B000846080937A0080917A00826080937A00D1
:1004C00080917A00816080937A0080917A008068C0
:1004D00080937A001092C100E0913D01F0913E01BD
:1004E00082E08083E0913901F0913A011082E0913D
:1004F0003B01F0913C018FEC808310924501E0912B
:100500004101F091420186E08083E0913F01F0914A
:100510004001808180618083E0913F01F091400142
:10052000808188608083E0913F01F091400180816B
:1005300080688083E0913F01F091400180818F7D50
:1005400080838AE0882E912CA12CB12C8DE291E041
:100550000E949000181619060CF058C08DE291E028
:100560000E946E00909323018093220182E191E02A
:100570000E946901C0902201D09023010D2C000C33
:10058000EE08FF08F7FE26C0E0912D01F0912E0144
:100590000190F081E02D6DE28DE291E00995222736
:1005A0003327A9012C193D094E095F0919A28E01B3
:1005B0000F5D1F4FCA01B901A50194010E943603C6
:1005C000605DF80162938F012115310541055105E8
:1005D00089F715C0A701960119A28E010F5D1F4F63
:1005E000CA01B901A50194010E943603605DF801BA
:1005F00062938F01211531054105510589F7C80125
:100600000E9469018FE191E00E9469010E9430011E
:100610009DCFEDE2F1E01382128288EE93E0A0E03C
:10062000B0E084839583A683B78384E091E09183CF
:10063000808385EC90E09587848784EC90E09787B1
:10064000868780EC90E0918B808B81EC90E0938B9F
:10065000828B82EC90E0958B848B86EC90E0978B7C
:10066000868B118E128E138E148E0895A1E21A2E8F
:10067000AA1BBB1BFD010DC0AA1FBB1FEE1FFF1F46
:10068000A217B307E407F50720F0A21BB30BE40B96
:10069000F50B661F771F881F991F1A9469F76095DD
:1006A0007095809590959B01AC01BD01CF01089597
:1006B000EE0FFF1F0590F491E02D099481E090E08A
:0A06C000F8940C946303F894FFCF44
:1006CA0000000000BD003A015F00040190006E00C6
:1006DA008200492072656365697665643A20000D77
:0206EA000A0004
:00000001FF
